:020000040000FA
:1000000001288316031307309C008E309F000030B8
:1000100088001130850028308100831281309F00D4
:100020001930A0000330A1002820472065202408B3
:100030002202A9002508031C013E2302031C2428D8
:100040002128081488102728081088142728142825
:100050002008A900AA010310A90DAA0D2908A200D1
:100060002A08A3000310A90DAA0D0310A90DAA0DBB
:100070002208A9070318AA0A2308AA072108A90722
:100080000318AA0A2908A2002A08A300080032308F
:10009000A700A70B49281F151F194C2883161E08F7
:1000A0008312A4001E08A5002408A9002508AA00A0
:1000B0000310A40DA50D0310A40DA50D2908A40778
:1000C0000318A50A2A08A507080081016430A700C3
:1000D000FA30A800A80B6A28A70B68280108A60018
:0200E000080016
:0400E20000340034B2
:02400E00323F3F
:00000001FF
